:020000040800F2
:10000000481B002075020008FB1F0008ED1D0008BA
:10001000F91F00087D060008BD3E00080000000032
:10002000000000000000000000000000DD210008CA
:100030009906000800000000DB210008512200089A
:100040008F0200088F0200088F0200088F0200084C
:100050008F0200088F0200088F0200088F0200083C
:100060008F0200088F0200088F0200088F0200082C
:100070008F0200088F0200088F0200088F0200081C
:100080008F0200088F0200088F02000800000000A5
:100090000000000000000000000000008F020008C7
:1000A0008F0200088F0200088F0200088F020008EC
:1000B0008F020008FD2200088F0200088F0200084E
:1000C0008F0200088F0200088F0200088F020008CC
:1000D0008F0200088F0200088F0200080000000055
:1000E0008F0200088F0200088F0200080000000045
:1000F0000000000000000000000000008F02000867
:10010000000000008F0200088F0200088F02000824
:1001100000000000000000000000000000000000DF
:100120008F0200088F0200088F0200088F0200086B
:100130008F02000800000000000000000000000026
:100140000000000000000000000000006120000826
:100150008F0200088F0200088F0200088F0200083B
:100160008F0200088F02000800000000000000005D
:10017000000000000000000000000000000000007F
:10018000000000008F0200080000000000000000D6
:100190008F02000800F002F800F05CF80AA090E876
:1001A000000C82448344AAF10107DA4501D100F032
:1001B00051F8AFF2090EBAE80F0013F0010F18BFA3
:1001C000FB1A43F00103184788490000A8490000C2
:1001D0000A444FF0000C10F8013B13F0070408BF6D
:1001E00010F8014B1D1108BF10F8015B641E05D00B
:1001F00010F8016B641E01F8016BF9D113F0080FC0
:100200001EBF10F8014BAD1C0C1B09D16D1E58BF51
:1002100001F801CBFAD505E014F8016B01F8016B88
:100220006D1EF9D59142D6D37047000000230024FB
:1002300000250026103A28BF78C1FBD8520728BFF6
:1002400030C148BF0B6070471FB504F077F91FBD80
:1002500010B510BD00F02BF91146FFF7F5FF03F0C4
:100260004FFE00F049F903B4FFF7F2FF03BC00F0C2
:1002700051F900000948804709480047FEE7FEE7BA
:10028000FEE7FEE7FEE7FEE7FEE7FEE7FEE7FEE746
:1002900004480549054A064B70470000ED22000856
:1002A0009501000848150020481B00204817002031
:1002B0004817002053EA020C00F069802DE9F04B4A
:1002C0004FF00006002B1FBFB3FA83F503FA05F4C5
:1002D00024FA05F65E4012BF1643B2FA82F502FA1E
:1002E00005F4C5F120051EBF22FA05FC44EA0C0402
:1002F000203556EA044C4FEA144418BF641C4FF0F2
:1003000000084FF00009904271EB030C39D300292B
:1003100019BFB1FA81F701FA07F6B0FA80F700FACF
:1003200007F6C7F120071EBF20FA07FC46EA0C06B5
:100330002037B6FBF4FCA7EB0507103F07F01F0BB7
:10034000CBF120060CFA0BFB2CFA06F644BFB346A1
:100350000026202FA4BF5E464FF0000B5BEA060C80
:1003600008BF4FF0010B19EB0B09ABFB027C48EB0C
:100370000608C01B06FB02CC0BFB03CC71EB0C0187
:10038000C1E70B46024641464846BDE8F08B13B52F
:100390004FF000004FF00001AFF30080BDE81C40BB
:1003A000704710B5203AC0F00B80B1E81850203AE1
:1003B000A0E81850B1E81850A0E81850BFF4F5AF05
:1003C0005FEA027C24BFB1E81850A0E8185044BF8F
:1003D00018C918C0BDE810405FEA827C24BF51F8FC
:1003E000043B40F8043B08BF7047D20728BF31F8F0
:1003F000023B48BF11F8012B28BF20F8023B48BF41
:1004000000F8012B704702F0FF0343EA032242EA9F
:10041000024200F02CB84FF0000200B5134694469B
:100420009646203922BFA0E80C50A0E80C50B1F14C
:100430002001BFF4F7AF090728BFA0E80C5048BF60
:100440000CC05DF804EB890028BF40F8042B08BFFE
:10045000704748BF20F8022B11F0804F18BF00F8FA
:10046000012B70477047704770474FF00002042916
:10047000C0F0128010F0030C3FF4CFAFCCF1040CAD
:10048000BCF1020F18BF00F8012BA8BF20F8022B07
:10049000A1EB0C01FFF7C1BF5FEAC17C24BF00F8EC
:1004A000012B00F8012B48BF00F8012B704775465F
:1004B00000F02CF8AE4605006946534620F00700D0
:1004C000854618B020B5FFF7E3FEBDE820404FF0A9
:1004D00000064FF000074FF000084FF0000B21F02E
:1004E0000701AC46ACE8C009ACE8C009ACE8C009FB
:1004F000ACE8C0098D46704710B50446AFF30080E4
:100500002046BDE81040FFF7AEBE0000004870472F
:10051000E814002001491820ABBEFEE726000200C7
:1005200070470000464910B54A6822F440324A60DC
:100530004A6843681A434A6001684A6822F4807234
:100540004A6001684A68036942EA03224A60016816
:100550004A6822F040724A6001684A6883681A4318
:100560004A6001688A6822F400628A6001688A68C9
:10057000C3681A438A60816A6FF07062D142016871
:100580008A6822F070628A6001688A680CD0836A87
:100590001A438A6001688A6822F040528A600168C2
:1005A0008A68C36A1A4301E022F040528A600168F7
:1005B0008A6822F002028A6001688A68037E42EA41
:1005C00043028A6090F82010002901684A680FD021
:1005D00042F400624A6001684A6822F460424A605C
:1005E00001684A68174C436A04EB43331A4301E03D
:1005F00022F400624A600168CA6A22F47002CA6288
:100600000168CA6A838B104C04EB03531A43CA6215
:1006100001688A6822F400728A6001688A6890F82A
:10062000303042EA43228A6001688A6822F480629C
:100630008A6001688A68406942EA8020886010BD4B
:100640000023014000E0FFFF0000F0FF0A4810B562
:10065000084901605321416042F20F71C1600021DD
:100660008160016101F028FABDE81040024801F004
:1006700067BA000000040040100B0020FEE70020D5
:10068000704700207047000010B5024801F0AAFF33
:10069000002010BD1C020020704772B6FEE700006B
:1006A00070B50B480168001D0568001D006808440E
:1006B00000280CD0074C0822A11C01F098FB04F183
:1006C00012012846BDE87040042201F090BB70BDC5
:1006D000107AFF1F8400002078B50024009490F861
:1006E0003C20012A19D0012280F83C200A68072307
:1006F0000568092A13D9EE680A3A02EB42029340D0
:100700009E43EE600B788A680A3B03EB43039A40F2
:100710000368DD682A43DA6010E0022078BD2E69A4
:1007200002EB420293409E432E610B788A6803EBF2
:1007300043039A4003681D692A431A614A681F23CC
:10074000072A13D205686E6B521E02EB8202934099
:100750009E436E630B790A885B1E92B203EB8303A0
:100760009A4003685D6B2A435A6327E005680D2AA7
:1007700012D22E6BD21F02EB820293409E432E6355
:100780000B790A88DB1F92B203EB83039A4003685C
:100790001D6B2A431A6311E0EE6A0D3A02EB8202E6
:1007A00093409E43EE620B790A880D3B92B203EBB5
:1007B00083039A400368DD6A2A43DA62164B0568B0
:1007C000144A9D4206D10D68122D03D1556845F497
:1007D0008005556005689D4218D10B68102B01D02B
:1007E000112B13D1536843F4000353600968102997
:1007F0000CD10A490A4A0968B1FBF2F101EB810107
:10080000490000E0491E00910029FBD180F83C40DE
:10081000002078BD00230140002001404C00002052
:1008200040420F0070B504004FF0000503D0206C6B
:10083000002610B107E0012070BD204600F01CF832
:10084000666484F83C60206CC00610D4206C20F4F0
:10085000885040F0020020642046FFF763FE666483
:10086000206C20F0020040F00100206400E001252F
:1008700084F83C60284670BD10B586B0044614214B
:100880006846FFF7C8FD1149206888421CD110480E
:100890000021026842F480720260006800F48070F7
:1008A00005900B481438026842F0010202600068AB
:1008B00000F001000590842000900320CDE90101A3
:1008C0006946044800F01AF806B010BD0020014047
:1008D000443802400000024070B5044600F004F9BC
:1008E0000546601C02D004480078044400F0FCF87F
:1008F000401BA042FAD370BD400000202DE9F84F04
:10090000DFF8B8A1002201240AF1040B03254FF0FF
:100910000F090BF1040E00BF0B6804FA02F6334016
:10092000B34273D10F7907F00307012F01D0022FD3
:1009300016D187684FEA420805FA08FC27EA0C0737
:10094000D1F80CC00CFA08FC4CEA070CC0F808C03F
:100950004768B7430E79C6F3001696403E4346609B
:100960000E79F643B6070DD0C768560005FA06FCA7
:1009700027EA0C07D1F808C00CFA06FC4CEA070C71
:10098000C0F80CC00E7906F00306022E10D1D6086E
:1009900000EB8608D8F8206057074FEAD76C09FAB1
:1009A0000CF7BE430F6907FA0CF73743C8F82070FD
:1009B00006684FEA420C05FA0CF7BE430F7907F0C0
:1009C000030707FA0CF7374307604E6816F4403FF9
:1009D0006DD03B4E376847F480473760366822F069
:1009E000030706F480460096364E07EB060CDCF84B
:1009F000086897073F0F09FA07F826EA0806DFF8A4
:100A0000C880404503D14FF000081EE04FE0DFF8FA
:100A1000BC80404502D14FF0010816E0DFF8B080FD
:100A2000404502D14FF002080FE0DFF8A8804045B2
:100A300002D14FF0030808E0DFF89C80404502D166
:100A40004FF0040801E04FF0070808FA07F848EAF9
:100A50000608CCF80888DAF800605746D1F804C0D8
:100A60009E435FEACC3C00D51E433E60DBF800604D
:100A70005F46D1F804C09E435FEA8C3C00D51E431C
:100A80003E60DEF800607746D1F804C09E435FEA1E
:100A9000CC2C00D51E433E60084F0C373E68D1F881
:100AA00004C09E435FEA8C2C00D51E433E60521C5E
:100AB000102AFFF431AFBDE8F88F0000003C014080
:100AC000443802400030014000000240000402406F
:100AD00000080240000C0240001002400AB181618F
:100AE00070470904FBE70000014880687047000078
:100AF00040000020024881680278114481607047FC
:100B0000400000200B4810B5016841F400710160FD
:100B1000016841F480610160016841F48071016005
:100B2000032000F06FF80F2000F006F800F024F822
:100B3000002010BD003C024070B50D4D04464FF43E
:100B40007A712878B1FBF0F00A490968B1FBF0F03E
:100B500000F09CFF48B9102C07D200222146501EFD
:100B600000F030F800206C6070BD012070BD000006
:100B7000400000204C0000200A4808B5016841F4FC
:100B800080410160006800F4804000900548001F2B
:100B9000016841F080510160006800F080500090D1
:100BA00008BD000044380240002809DB00F01F02A5
:100BB000012191404009800000F1E020C0F80011BF
:100BC00070470000F0B40E4B1B680C46C3F30223C1
:100BD000C3F10705042D00D90425191D072901D2E9
:100BE000002300E0DB1E012606FA05F1491E214024
:100BF00099409E40761E16403143F0BC03F05FB929
:100C00000CED00E0064900F0070208684FF6FF030C
:100C1000184040EA0220034A104308607047000071
:100C20000CED00E00000FA0570470068416200200A
:100C30007047F0B50368586A39B19C6A4FF4827600
:100C400000EB144400204D1E0AE040EA0240986286
:100C50000FE006EB8007DF59401C04EB1744C0B2DD
:100C6000A842F6D344EA02404FF4807202EB8101BD
:100C700058500020F0BDD0F8040402F062B8C1EB77
:100C8000C10200EB8202D0F80404926C01F0C3BFF1
:100C9000C1EBC10200EB8202D0F80404D2F80822B2
:100CA00002F017B8D0F8040402F04DB870B504464D
:100CB0000B0601F00F00C0EBC00104EB81014FF007
:100CC00001024FF0000503D581F83D203C3103E0DF
:100CD00081F8FD5101F5FE71087094F8BC030128FC
:100CE00008D084F8BC23206802F04EFC84F8BC5382
:100CF000002070BD022070BD70B5044601F00F00E9
:100D00006268904201D9012070BD0B0601F00F010D
:100D1000C1EBC10104EB81014FF001024FF000056E
:100D200003D581F83D203C3103E081F8FD5101F508
:100D3000FE718D70087094F8BC03012808D084F807
:100D4000BC23206802F01AFE84F8BC53002070BD5A
:100D5000022070BD2DE9F04104460F0601F00F009E
:100D6000C0EBC00104EB81014FF001064FF000051C
:100D700003D581F83D603C3103E081F8FD5101F578
:100D8000FE7108708A60CB704A7802B1C880022B6D
:100D900000D10D7194F8BC03012809D084F8BC631C
:100DA000206802F049FB284684F8BC53BDE8F08176
:100DB0000220FBE770B50C4601F00F05C5EBC5013D
:100DC00000EB8101C1F81032C1F808220023C1F8FC
:100DD000143281F8FD3181F8FC51036901F5FE718F
:100DE000012B00D10A612207027C006803D002F0C7
:100DF0001DFE002070BD02F009FDFAE770B5044643
:100E00000D4601F00F006168884201D9012070BDD4
:100E100029064FF000064FF0010207D5C0EBC001D4
:100E200004EB810181F83D203C3107E0C5EBC501B1
:100E300004EB810181F8FD6101F5FE718A70087093
:100E400094F8BC03012807D084F8BC23206802F082
:100E5000C1FD280702D007E0022070BD217C04F507
:100E60007172206802F05EFD84F8BC63002070BDE2
:100E700070B50C4601F00F05C5EBC50100EB810113
:100E80000B658A6400234B65012381F83D3001F82E
:100E90003C5F0369012B00D10A612207027C0068D4
:100EA00003D002F0C3FD002070BD02F0AFFCFAE7F2
:100EB0002DE9FC5F05680446284602F0E8FE00289C
:100EC0007ED1206802F00FFF002879D0206802F060
:100ED0000AFF800704D52168486900F002004861D4
:100EE000206802F000FFC10604F57170009034D54F
:100EF0002068816921F0100181612F6A07F00F00DD
:100F0000C0EBC00004EB8006C7F3434006F5FE7655
:100F1000022802D0062811D01AE047F6F0700742E6
:100F200016D0C7F30A1217462846F16802F0DFFE12
:100F3000F0683844F060B069384408E00822284678
:100F4000009902F0D4FEB069C7F30A110844B061F9
:100F50002068816941F010018161206802F0C3FEC0
:100F600000034FF0010A4FF0080B5BD50026206804
:100F700002F098FE0746DFF8689351E0F8074DD07D
:100F8000F1B2206802F0A7FE8046C00707D005EB4B
:100F90004611C1F808AB3146204601F067F85FEA18
:100FA000087022D505EB4611C1F808BB2068016C1A
:100FB00000EB46100191D0F8082B494507D900E015
:100FC0008BE1110403D54FF40041C0F8081B204603
:100FD00000F073FA0198484507D92069012804D127
:100FE00020680121009A02F09DFC5FEAC86004D5E8
:100FF00005EB46111020C1F8080B5FEA886004D5A4
:1010000005EB46112020C1F8080B5FEA884005D5A2
:1010100005EB46104FF40051C0F8081B7F08761C02
:10102000002FABD1206802F05EFE40034FF00009B4
:101030005CD5206802F02FFE0746002654E0F80732
:1010400050D0F1B2206802F034FE8046C00723D0B1
:1010500006F00F020AFA02F0D5F834288243C5F8E8
:10106000342805EB4610C0F808A9206901280FD1E3
:10107000C6EBC60004EB8000D0E911211144816465
:1010800036B9206D20B920680121009A02F04AFC8F
:10109000F1B22046FFF7F3FD5FEA087003D505EBD8
:1010A0004611C1F808B95FEAC86004D505EB4611DE
:1010B0001020C1F808095FEA486004D505EB461125
:1010C0004020C1F808095FEA887004D505EB461195
:1010D0000220C1F808095FEA086003D531462046BE
:1010E00001F02AF87F08761C002FA8D1206802F0B2
:1010F000FAFD002811DAD5F8040820F00100C5F83F
:10110000040894F8F403012829D0204600F0B9F926
:101110002068416901F000414161206802F0E3FD6F
:1011200000050BD5D5F80808C00702D0204600F00E
:10113000EDF92068416901F400614161206802F025
:10114000D2FDC00468D5D5F8040820F00100C5F828
:1011500004081021206802F077FD002127E084F8C0
:10116000F49300212046FFF75FFDD1E705EB411026
:101170004FF67F32C0F80829D0F8003923F4001365
:10118000C0F80039D0F8003943F00063C0F80039E6
:10119000C0F8082BD0F8002B22F40012C0F8002B66
:1011A000D0F8002B42F00062C0F8002B491C6068A8
:1011B0008842DBD8D5F81C0840F00110C5F81C089F
:1011C000206B60B1D5F8840840F00B00C5F88408A6
:1011D000D5F8440840F00B00C5F844080CE0D5F8F9
:1011E000141842F22B000143C5F81418D5F8100862
:1011F00040F00B00C5F81008D5F8000820F4FE6098
:10120000C5F80008217C2068009A02F08BFB20685A
:10121000416901F480514161206802F064FD80045D
:1012200015D5206802F048F9206802F023FDE0603F
:1012300000F01EFA0146227B206802F0B7FD20462E
:1012400000F00CF92068416901F400514161206807
:1012500002F049FD000707D5204600F016F9206886
:10126000416901F008014161206802F03CFDC002C3
:1012700008D50021204600F035F82068416901F4C6
:1012800080114161206802F02EFD800208D5002106
:10129000204600F02BF82068416901F400114161FB
:1012A000206802F020FD400007D52046FFF7E3FC50
:1012B0002068416901F080414161206802F013FD1E
:1012C00040070AD520684568680702D52046FFF721
:1012D000E9FC2068416829434160BDE8FC9F0000AB
:1012E0000A30544FD0F8040401F07BBDD0F8040458
:1012F00001F088BD2DE9F0418AB0040005D094F8D2
:10130000BD032668002520B108E001200AB0BDE831
:10131000F08184F8BC53204600F05EF8032084F886
:10132000BD03F06BC00500D42561206802F068FAA7
:1013300004F11001282288466846FFF732F894E845
:101340000F0002F0C7F80226C8BB0021206802F097
:10135000EDFC002001270EE0C0EBC00104EB810191
:1013600081F83D7001F83C0FC880CD708D60CD6074
:10137000401CC0B24D6161688142EDD8002011E08F
:10138000C0EBC00104EB810181F8FD5181F8FC0143
:1013900081F8FF51C1F80452C1F80852401CC0B294
:1013A000C1F8105261688142EAD828224146684655
:1013B000FEF7F7FF94E80F0002F068F910B184F827
:1013C000BD63A2E784F8385084F8BD73206802F04A
:1013D0004FF900209AE7000000B587B00021029184
:1013E00003910491059106910068B0F1A04F2BD1B3
:1013F0001648016841F001010160006800F0010039
:1014000001904FF4C05002900220039003200590F9
:101410000A20069002A90E48FFF770FA0D480168ED
:1014200041F0800101600C48016841F48041016095
:10143000006800F480400190002211464320FFF72D
:10144000C1FB4320FFF7B0FB07B000BD30380240BE
:1014500000000240343802404438024070B504466F
:101460000125E068022801D0FFF717F92946D4F8D2
:10147000040401F036FDD4F80404BDE8704001F026
:10148000E7BCD0F8040401F011BDD0F8040401F069
:1014900017BD10B5044690F8BC0301280BD00120FD
:1014A00084F8BC0384F83810206802F06DFC00203A
:1014B00084F8BC0310BD022010BDD0F8042400F550
:1014C0007171104601F019BD10B50446006894F81A
:1014D000BC13012906D0012184F8BC13A16A01299B
:1014E00002D008E0022010BDA169012903D0816B60
:1014F00041F480318163206802F08CFB206802F0A7
:10150000A9F8002084F8BC0310BD000010B5044603
:10151000D4F8040401F035FD2068D0F8001E41F035
:101520000101C0F8001E206A002804D002480168AA
:1015300041F00601016010BD10ED00E02DE9F0471B
:101540000E46050065D0DFF81481D8F80000F7B228
:1015500000F00700B04207D288F80070D8F8000009
:1015600000F00700B04254D128683D4C810712D5E5
:10157000400703D5206840F4E05020602878000739
:1015800003D5206840F4604020602068A96820F0FE
:10159000F000084320602878C0072DD030496868E3
:1015A0000839012812D0022813D0032811D0096865
:1015B000890700292DDA216821F003010143216008
:1015C000FFF792FA814641F2883A0EE009688903F2
:1015D000EFE709688901ECE7FFF786FAA0EB09015C
:1015E000514502D90320BDE8F0872068696800F002
:1015F0000C00B0EB810FEFD1D8F80010404601F09D
:101600000701B14207D90770006800F00700B04237
:1016100001D00120E7E72878400705D52068E96870
:1016200020F4E050084320602878000706D52068A1
:10163000296920F4604040EAC100206000F03EF8D3
:101640002168084AC1F30311515CC840064908608B
:1016500006480068FFF770FA0020C4E7003C02402B
:1016600008380240464500084C0000204400002095
:1016700001480068704700004C00002004480549FC
:1016800000680968044AC1F38221515CC840704770
:101690004C0000200838024056450008044805491F
:1016A00000680968044AC1F34231515CC840704780
:1016B0004C0000200838024056450008154810B577
:1016C000006810F00C02144813D01449042A0FD0FB
:1016D000082A0ED10F4C241F2268236802F03F0213
:1016E0005B0207D52068C0F38810A0FB010106E06B
:1016F000084610BD2168C1F38811A1FB0001002339
:10170000FEF7D8FD2168C1F30141491C4900B0FB37
:10171000F1F010BD083802400024F40040787D014B
:101720002DE9F84F04006ED02078DFF84C93C00705
:10173000A9F104054AD009F104000168C1F381014F
:10174000012908D00068C0F3810002280AD1D9F825
:101750000000400206D52868800337D5606800285D
:10176000E1D033E06068B0F5803F10D0B0F5A02F35
:10177000286810D020F480302860286820F4802069
:1017800028606068A8B1FFF7AFF906460DE0286849
:1017900040F48030F4E740F480202860F7E700BF91
:1017A000FFF7A2F9801B642873D828688003F7D557
:1017B0000CE0FFF799F9064605E000BFFFF794F942
:1017C000801B6428F0D828688003F7D42078DFF8DD
:1017D000AC8280074FF0000A3ED5A748001D016883
:1017E00011F00C0F08D00068C0F3810002280BD163
:1017F000D9F80000400207D42868800716D5E068B1
:10180000012800D112E033E1E068B8B10120C8F846
:101810000000FFF769F9064605E000BFFFF764F92D
:10182000801B0228C0D828688007F7D5286821695E
:1018300020F0F80040EAC10028600DE0C8F800A0E0
:10184000FFF752F9064604E0FFF74EF9801B022825
:101850001FD828688007F7D42078000722D5864F44
:1018600087486169703771B101210160FFF73CF968
:10187000064604E0FFF738F9801B022809D83868CB
:101880008007F7D50EE0C0F800A0FFF72DF9064657
:1018900005E082E0FFF728F9801B02287DD8386830
:1018A0008007F7D42078400768D5DFF8CCB100274F
:1018B0000BF13C0BDBF80000C0000BD4DBF8001090
:1018C00041F08051CBF80010DBF80000012700F058
:1018D000805000906B4E3068C00510D4306840F4E2
:1018E00080703060FFF700F9009005E0FFF7FCF82A
:1018F0000099401A022850D83068C005F6D55E4ECF
:10190000A0686C3601280FD00528306810D020F070
:1019100001003060306820F004003060A068B8B189
:10192000FFF7E2F800900FE0306840F00100F4E7C4
:1019300040F004003060F7E7FFF7D6F80099411A4D
:1019400041F28830814266D830688007F4D50EE0D5
:10195000FFF7CAF8009007E0FFF7C6F80099411AB0
:1019600041F28830814256D830688007F4D42FB1D4
:10197000DBF8001021F08051CBF80010A069C8B34B
:101980003D49091D0968C1F3810102294AD0022895
:10199000504607D0C8F8600000E03CE0FFF7A4F82C
:1019A00004463BE04746C8F86000FFF79DF806464E
:1019B00005E000BFFFF798F8801B02282BD82868A5
:1019C0008001F7D4D4E907010843A16A2E4A4908E7
:1019D00002EB0141626A41EA8211084394F82C103B
:1019E00040EA0161C9F8001001203866FFF77CF871
:1019F000044606E03EE000BFFFF776F8001B022831
:101A000009D828688001F7D534E000BFFFF76CF8EB
:101A1000001B022802D90320BDE8F88F2868800146
:101A2000F4D427E00128F7D0D9F80000E26900F4E7
:101A3000800191421CD1226A00F03F01914217D1EE
:101A400047F6C071626A0140B1EB821F10D1A26AF1
:101A50004FF0FF3300F4403103EB5202B1EB024F81
:101A600006D194F82C1000F07060B0EB016F01D03B
:101A70000120D1E70020CFE70438024000004742B0
:101A8000800E4742007000400000FFFF10B5401E6E
:101A9000B0F1807F01D3012010BD4FF0E0246061E0
:101AA0000F21601702F00BFA0020A06107202061CF
:101AB000002010BD7047704710B5040003D094F8A3
:101AC0003D0010B107E0012010BD002084F83C006B
:101AD000204600F01FF8022084F83D00211D2068F8
:101AE00000F012FC012084F8460084F83E0084F8DF
:101AF0003F0084F8400084F8410084F8420084F8F4
:101B0000430084F8440084F8450084F83D00002038
:101B100010BD0000094808B5016841F002010160EC
:101B20000068002200F00200009001211D20FFF754
:101B300049F8BDE808401D20FFF736B8403802409C
:101B400090F83D10012901D001207047022180F852
:101B50003D100168CA6842F00102CA6000680E497F
:101B600088420ED0B0F1804F0BD00C49884208D08B
:101B70000B49884205D00B49884202D00A49884265
:101B800004D1816801F00701062903D0016841F002
:101B90000101016000207047000001400004004086
:101BA00000080040000C004000400140704770B544
:101BB0000446006801694FF00005C943890715D440
:101BC000C168C943890711D4E91E0161012020774A
:101BD000206880698007204602D0FFF7E7FF04E015
:101BE00000F098F8204600F096F825772068016903
:101BF000C943490717D4C168C943490713D46FF0D3
:101C000004010161022020772068806910F4407F80
:101C1000204602D0FFF7CAFF04E000F07BF8204620
:101C200000F079F8257720680169C943090716D4BF
:101C3000C168C943090712D46FF00801016104208B
:101C400020772068C0698007204602D0FFF7AEFFEA
:101C500004E000F05FF8204600F05DF8257720688A
:101C60000169C943C90617D4C168C943C90613D459
:101C70006FF010010161082020772068C06910F41E
:101C8000407F204602D0FFF791FF04E000F042F8C9
:101C9000204600F040F8257720680169C943C9074C
:101CA00008D1C168C943C90704D1891E0161204612
:101CB00000F032F820680169C943090609D4C168F7
:101CC000C943090605D46FF0800101612046FFF782
:101CD000F1FE20680169C943490609D4C168C943B6
:101CE000490605D46FF040010161204600F015F867
:101CF00020680169C94389060BD4C168C9438906B4
:101D000007D46FF0200101612046BDE87040FFF765
:101D1000D2BE70BD704770477047704770B5040001
:101D200004D094F83D00002510B106E0012070BDFC
:101D300084F83C50204600F023F8242084F83D002D
:101D40002068C16821F40051C160204600F028FBE2
:101D50002068016921F4904101612068416921F006
:101D60002A0141612068C16841F40051C1602564C5
:101D7000202084F83D0084F83E00002070BD000063
:101D800010B586B0044614216846FEF744FB14499A
:101D90002068884221D113480021026842F01002D5
:101DA0000260006800F0100005900E4814380268C8
:101DB00042F001020260006800F0010005904FF45B
:101DC000C06000900220CDE90101032003900720AC
:101DD000049069460448FEF791FD06B010BD00006E
:101DE000001001404438024000000240FEE7F0B419
:101DF0000023002A18D90A24302537269C46B4EB44
:101E0000107F04D905EB107701F8137003E006EB9F
:101E1000107701F81370000101EB430787F801C048
:101E20005B1CDBB29342EAD3F0BC70477FB5002461
:101E300015480094019402941249039401604FF4F0
:101E40008031C0E901140461047680F820400F4914
:101E5000C0E90A140125C561C46080F830404561BD
:101E6000FEF7E0FC08B1FEF718FC0720CDE90005FD
:101E7000694602940448FEF72FFC002801D0FEF7C3
:101E80000CFC7FBD00200140900100200100000FEC
:101E90002DE9F04186B014216846FEF7BCFA2F48C0
:101EA0000024016841F004010160016801F00401AF
:101EB0000591016841F080010160016801F0800135
:101EC0000591016841F001010160016801F0010123
:101ED0000591016841F0020101600068204E00F0A8
:101EE00002004FF400550590002229463046FEF7C7
:101EF000F5FDDFF8708000227A214046FEF7EEFD06
:101F0000194F00224FF2F6713846FEF7E7FD0095B3
:101F10000125CDE90154694630460394FEF7EEFCF5
:101F200002200090CDE90154694640460394FEF733
:101F3000E5FC4FF206400090CDE901546946384671
:101F40000394FEF7DBFCE803CDE900046946404654
:101F50000294FEF7D3FC06B0BDE8F08130380240B1
:101F60000008024000000240000402400C4810B586
:101F70000A4901604FF4E1314160002181600C2287
:101F8000C160C0E904128161C161FFF7C7FE00288A
:101F900003D0BDE81040FEF780BB10BD001001402B
:101FA000D801002010B500220F49104800F00DFEA6
:101FB00008B1FEF772FB0E490C4801F00DF808B1AC
:101FC000FEF76BFB0B49094800F019FB08B1FEF75F
:101FD00064FB064801F0BEF8002803D0BDE81040BD
:101FE000FEF75BBB10BD0000500000201C0200206B
:101FF000B8000020A4000020FEE7FEE7F0B5203A7C
:10200000D3B2B0F5C07F00D30020084C084D0022A9
:102010008F1802EB031607EB470705EB0717521C57
:10202000A65DD2B23E54102AF2D3F0BD5E45000840
:10203000880B002070B50023084C194603EB4305BC
:1020400004EB0515565C2E54565C05445B1C891C3C
:10205000C9B26E70DBB22029F0D370BD880B0020AE
:102060000148FEF725BF0000080700202DE9F041D8
:1020700003680D4604461E6C03EB4511D1F8080BAE
:10208000D4F810E04FF400474FF0200C04F57172C3
:10209000BEF1010F09D0DFF898E0764539D102048E
:1020A00032D500BFC1F8087B3FE0224B5FEA007EDB
:1020B00004D59E4239D90004F4D436E05FEA806E3C
:1020C00002D5C1F808CB30E010F0280F2DD19E4288
:1020D00001D90004E6D4C5EBC50004EB8000D1F8BB
:1020E000101BD0F80432C1F31201591AC0F81412AF
:1020F000D0F808121944C0F8081295B9D4F81002A3
:1021000078B9012120680AE080060AD5C1F808CB19
:1021100007E035B9D4F8100218B90021184601F0CB
:1021200001FCE9B22046FEF7B3FD0020BDE8F081D6
:102130000A31544F0A30544F2DE9F84F0E46C1EB87
:10214000C60100EB810481460568D4E914103C34D3
:10215000884202D90120BDE8F88F081AA16881429F
:1021600000D20846C01C870805EB46181BE000BFDC
:10217000A0EB010AA068504500D282460AF1030094
:10218000870899F8100000901FFA8AF3F2B22846E7
:10219000E16801F07FFEE16801EB0A00E060A169FF
:1021A00001EB0A00A061D8F8180980B2B84205D343
:1021B000D4E90501814201D20028D9D1D4E9050131
:1021C000884208D806F00F0101208840D5F834185D
:1021D0008143C5F834180020BDE770477047000000
:1021E0002DE9F043194A0825D30014014026570170
:1021F0004FF4002C4FF010084FF0200968B199B14E
:1022000001291FD0022918D0032910D0BDE8F0837E
:1022100094619661FAE79761F8E741B101290CD022
:1022200002290FD00329F1D195619361F0E7C2F83B
:1022300018C09361C2F81890EDE7C2F818C0C2F850
:102240001880E5E7956193619461E4E7000002403E
:10225000FEF750BC30B593B030216846FEF7DBF88E
:1022600014210CA8FEF7D7F81E480024016841F09D
:1022700080510160006800F0805011901A48016898
:1022800021F4404141F4004101600068022500F45E
:102290004040119001200090000401908001CDE9A0
:1022A0000650192008904FF4A870099004200A9055
:1022B00007200B906846FFF733FA08B172B6FEE7C5
:1022C0000F20CDE90C054FF48050CDE90E400221DE
:1022D0000CA81094FFF732F9002801D072B6FEE77F
:1022E00013B030BD40380240007000400248016821
:1022F00041F470010160704788ED00E00148FFF78C
:1023000056BC0000100B0020F0B502681D4B1E4C9F
:102310009F031E4D1E4E984207D0B84205D0A042E2
:1023200003D0A84201D0B04204D122F0700C4A6818
:1023300042EA0C02984210D0B8420ED0A0420CD013
:10234000A8420AD0B04208D0124CA04205D0124C8C
:10235000A04202D0114CA04203D122F44074CA68BA
:1023600022434C6922F08002224302608A68C262E2
:102370000A688262984201D10969016301214161C1
:10238000F0BD0000000001400004004000080040D3
:10239000000C004000400140004401400048014062
:1023A00070B5044600680169E26821F440511143A8
:1023B00001612169A068E26908436169114308432A
:1023C0002168CA6849F20C639A430243CA602068D4
:1023D0004169A26921F4407111434161314920688A
:1023E000884202D03049884202D1FFF757F901E014
:1023F000FFF744F9E2690023192164253226B2F57A
:10240000004F626828D0A0FB0101930F9200FDF7F6
:1024100051FF0146B0FBF5F06FF01802504301EB9D
:10242000800006EB0010B0FBF5F000F0F002B1FB0D
:10243000F5F002EB0012B1FBF5F06FF01803584312
:1024400001EB800006EB0010B0FBF5F000F00F0090
:1024500021681044886070BDA0FB010192185B41A7
:10246000FDF728FF0146B0FBF5F00201B1FBF5F0E6
:102470006FF01803584301EB800006EBC000B0FB7F
:10248000F5F000F0F80002EB4002B1FBF5F0584324
:1024900001EB800006EBC000B0FBF5F000F0070098
:1024A000D6E700000010014000140140D0F8BC0243
:1024B000002101750020704710B5D0F8BC22002A19
:1024C00008D0D0F8C00251781378C26818469047F7
:1024D000002010BD032010BD70B5044681212046A8
:1024E00000F090FB0025258765870121204600F03C
:1024F00089FBA4F87851A4F87A51D4F8BC0248B109
:10250000D4F8C00280688047D4F8BC0200F08FFF86
:10251000C4F8BC52002070BD10B5D0F8BC42002CED
:1025200003D02169012902D00AE0032010BDD0F8B0
:10253000C00223786178C268184690470020206165
:10254000002010BD0A210180004870478001002052
:102550002921018000487047F000002029210180D6
:10256000004870471C010020292101800048704765
:10257000480100202DE9F0410446182000F058FFE2
:10258000054600262DB3C4F8BC52217C052029B392
:102590006087A4F87A01022303228121204600F0FB
:1025A00042FC01272787022303220121204600F055
:1025B0003AFCA4F878712E75D4F8C00240688047C0
:1025C00002232A460121204600F039FC0020BDE804
:1025D000F081C4F8BC620220BDE8F0816087A4F8F5
:1025E0007A01D8E710B5D0F8BC22002A05D0022322
:1025F000012100F024FC002010BD032010BD0029A3
:1026000003D0C0F8C01200207047032070470000BC
:1026100038B58446DCF8BC3200220025002000904A
:102620000024002B0BD0087810F0600035D0202853
:1026300007D0604600F0B6F80324204638BD0320DA
:1026400038BD4878801E0A2822D2DFE800F0120840
:102650002121212121190E0588785860EDE70122FA
:10266000191D604600F0C4F8E7E74888000A986042
:10267000E3E7012203F10801604600F0B9F8DCE766
:1026800001201861CA881946604600F097F8D4E71F
:10269000604600F087F80324CFE7487806281CD06E
:1026A00003DC58B1012804D1C7E70A2830D00B2831
:1026B0003ED0604600F076F80324BEE79CF89C020A
:1026C000032804D0604600F06DF80324B5E7022229
:1026D0006946604600F08CF8AFE748882223B3EBE8
:1026E000102F07D1CA88022A00D90222DCF8C002C2
:1026F000056808E02123B3EB102F04D1124DCA88DE
:10270000092A00D909222946604600F071F894E7A9
:102710009CF89C02032804D0604600F043F8032490
:102720008BE7012203F10C01604600F061F884E7B9
:102730009CF89C02032804D0604600F033F8032480
:102740007BE78878D86078E77401002010B5D0F86E
:10275000B822002A01D052689047002010BD90F89E
:102760009C22012A05D0022A03D0032A01D000F0BE
:1027700019B84988012904D10021C0F8A41200F039
:1027800044B8704710B513460A46002100F057FBC5
:10279000002010BD10B513460A46002100F0FAFBD8
:1027A000002010BD10B504468021204600F0D7FB64
:1027B0002046BDE81040002100F0D1BB10B5032336
:1027C000C0F89432C0F85821C0F85C2113460A467C
:1027D000002100F034FB002010BD10B50521C0F829
:1027E000941200231A46194600F029FB002010BD60
:1027F00010B50223C0F894328261C26113460A46C2
:10280000002100F0C7FB002010BD10B50421C0F866
:10281000941200231A46194600F0BCFB002010BD9C
:1028200010B5002806D00A46054906A000F099F91F
:10283000034810BD0A46024902A000F092F9F7E7EA
:10284000EC040020437573746F6D204849442043A5
:102850006F6E6669670000001220088000487047AC
:102860007000002010B5002806D00A46054906A0D1
:1028700000F077F9034810BD0A46024902A000F0B3
:1028800070F9F7E7EC040020437573746F6D20480E
:10289000494420496E7465726661636500000000FA
:1028A00004200880004870476C00002010B50A46DC
:1028B000024903A000F055F9004810BDEC040020C7
:1028C00053544D6963726F656C656374726F6E69A2
:1028D0006373000010B5002806D00A46054906A01B
:1028E00000F03FF9034810BD0A46024902A000F07B
:1028F00038F9F7E7EC04002053544D333220437588
:1029000073746F6D2048756D616E20696E746572A9
:10291000666163650000000010B51A200880FDF7AD
:10292000BFFE014810BD000084000020CA88012AB3
:1029300001D0FFF737BF90F89C22012A05D0022A68
:1029400003D0032A08D0FFF72DBF002181600122A8
:1029500000F10801FFF74CBF0122011DFFF748BF3E
:102960002DE9F84304460F4600200090002600257C
:102970007888010A082970D2DFE801F0AB040C2244
:10298000ABAB8B9AD4F8B412207C0A6869469047A6
:102990000646A3E0207C4FF0020840B1D4F8B8020C
:1029A000C16A68468847064686F8018096E0D4F8F2
:1029B000B802816A68468847064686F801808DE03D
:1029C000C0B206285FD2DFE800F0031221303F4F8B
:1029D000D4F8B402426822B1207C6946904706468A
:1029E0007CE039462046FFF7DDFE012576E0D4F88D
:1029F000B402826822B1207C6946904706466DE0A9
:102A000039462046FFF7CEFE012567E0D4F8B40230
:102A1000C26822B1207C6946904706465EE039468E
:102A20002046FFF7BFFE012558E0D4F8B402026942
:102A300022B1207C6946904706464FE03946204641
:102A4000FFF7B0FE012549E0D4F8B40242692AB18B
:102A5000207C69469047064640E03AE039462046E9
:102A6000FFF7A0FE012539E0D4F8B402826922B153
:102A7000207C69469047064630E039462046FFF7FD
:102A800091FE01252AE039462046FFF78BFE0125FD
:102A900024E0207C28B139462046FFF783FE01253B
:102AA0001CE0D4F8B802416B68468847064615E03A
:102AB000207C28B139462046FFF774FE01250DE041
:102AC000D4F8B802016B6846884706460721717042
:102AD00004E039462046FFF765FE0125002D0CD1A4
:102AE000FA8892B1BDF8000048B1824200D902468E
:102AF000009231462046FFF77BFEBDE8F883394659
:102B00002046FFF74FFEBDE8F8832046FFF77DFE25
:102B1000BDE8F88300210278002A05D0491CC9B21B
:102B2000401C0278002AF9D10846704790F89C2290
:102B3000012A05D0022A03D0032A01D0FFF732BEB2
:102B4000CA88022A01D0FFF72DBE0121C160D0F84A
:102B5000A41209B10321C160022200F10C01FFF7A8
:102B600047BE70B50D46164600281BD004462046C9
:102B7000FFF7D0FF022101EB400030803078287051
:102B8000032068700222207800280BD000212078D2
:102B9000A854641C501CC0B22954401CC2B22078F6
:102BA0000028F4D170BD01460020002906D001297B
:102BB00005D0022905D0032905D003207047032042
:102BC0007047012070470320704700280FD0002372
:102BD000C0F8B832C0F8C032C0F8CC3209B1C0F881
:102BE000B412012180F89C12027000F0B9B80320E1
:102BF000704710B5D0F8C402FEF77EF8BDE810406B
:102C0000FFF7D1BF10B5D0F8C402FEF74FF8BDE80A
:102C10001040FFF7C8BF70B504461346002904D022
:102C200094F89C0203284AD051E004F11400D4F82F
:102C300094120025022938D18268C1688A420CD9D1
:102C4000521A826019462046FFF7A4FD00231A4657
:102C50001946204600F0F3F827E0914214D140686D
:102C6000884211D3D4F8981288420DD2002211461E
:102C70002046FFF78FFDC4F8985200231A461946E4
:102C8000204600F0DCF810E094F89C02032805D1FF
:102C9000D4F8B802C16809B120468847802120468F
:102CA00000F05DF92046FFF798FD94F8A002012896
:102CB0000DD1204600F0A2F984F8A05207E0D4F824
:102CC000B80242691AB120469047002800D100207E
:102CD00070BD10B5044608461146002804D094F88B
:102CE0009C12032922D02AE004F5AA70D4F8942279
:102CF000032A24D18368C268934209D99A1A826050
:102D0000C068824200D302462046FFF73BFD16E032
:102D100094F89C02032805D1D4F8B802016909B1DE
:102D2000204688472046FFF770FD08E0D4F8B81227
:102D30008A6922B1014620469047002800D1002030
:102D400010BD0020704710B5012180F89C12D0F80A
:102D5000B822002A02D0526801799047002010BDA5
:102D600010B50178002927D11449C1F80404C0F82E
:102D7000C4124FF0A0400860042048600222CA60DC
:102D8000002008618A61C86108624862C8620863FD
:102D90000846FEF7AFFA08B1FDF77FFC802107482F
:102DA000FDF743FF402200210448FDF742FF802247
:102DB00001210248FDF73DFF002010BD080700205B
:102DC00011F0800F01F07F01D0F8C402C1EBC10106
:102DD00000EB810002D090F83E00704790F8FE01B1
:102DE000704710B5D0F8B822002A04D090F89C3271
:102DF000032B02D004E0032010BD126A02B19047F9
:102E0000002010BD10B5D0F8B822002A04D090F8E8
:102E10009C32032B02D004E0032010BD526A02B1A1
:102E20009047002010BD10B59C461346D0F8C40250
:102E30006246FDF78FFFBDE81040FFF7B4BE10B546
:102E4000D0F8C402FDF7B6FFBDE81040FFF7ABBEF7
:102E500070B50446012584F89C520020C4F8940201
:102E60006060C4F8A402D4F8B80200281CD0D4F8DA
:102E7000BC1221B1426812B10021204690470022C5
:102E8000402311462046FFF7CEFFA4F864514026A8
:102E9000C4F860614023002280212046FFF7C3FF71
:102EA000A5842662002070BD032070BD90F89C129E
:102EB000042903D190F89D1280F89C1200207047DD
:102EC00010B5D0F8B812002904D090F89C22032A3B
:102ED00002D004E0032010BDC96901B18847002079
:102EE00010BD01740020704710B5D0F8C402FEF781
:102EF000D0FABDE81040FFF756BE10B5044604F204
:102F0000AA2000F050F80120C4F89402B4F8B002EE
:102F1000C4F8980294F8AA1211F01F000AD00128F0
:102F20000FD0022814D02046BDE8104001F08001E7
:102F300000F015B804F2AA212046BDE8104000F0C8
:102F40000BB904F2AA212046BDE8104000F03ABABD
:102F500004F2AA212046BDE8104000F03FB910B5A8
:102F6000D0F8C402FDF74AFFBDE81040FFF71BBED2
:102F700010B5D0F8C402FEF7A7FABDE81040FFF77D
:102F800012BE90F89C1280F89D12042180F89C12C9
:102F90000020704710B5D0F8C402FDF769FFBDE806
:102FA0001040FFF700BE0A780270491C0A78427090
:102FB000491C0A784B1C1B7842EA03224280891C78
:102FC0000A784B1C1B7842EA032282808A78C978EF
:102FD00042EA0121C180704738B5044600200090C4
:102FE000002909D0C4F8B812C96A19B168468847DF
:102FF000C4F8CC02002038BD032038BD0020704743
:1030000070B504468888002821D1C888F8B9488856
:1030100080281CD200F07F0594F89C0203280DD074
:1030200084F89E5229462046FFF75EFF2046FFF7B0
:10303000ECFB45B1022084F89C0270BD2046BDE83F
:103040007040FFF7AFBB012084F89C0270BD2046A2
:10305000BDE87040FFF7A6BB03460320D3F8B822B3
:10306000002A02D012681846104770472DE9F04137
:1030700004460E460025324FB1783970012906D931
:1030800031462046FFF78EFB0320BDE8F08194F81F
:103090009C0202280DD0032823D031462046FFF79A
:1030A00081FB39782046FFF751FB03252846BDE810
:1030B000F08191B161602046FFF7CEFF0546280000
:1030C00004D031462046FFF76DFBEFE72046FFF7BF
:1030D0009CFB032084F89C02E8E72046FFF795FB61
:1030E000E4E74FF00208C9B16068884224D0C1B259
:1030F0002046FFF72BFB397861602046FFF7ACFFD5
:103100000546280014D031462046FFF74BFB2179B5
:103110002046FFF71BFB84F89C82C7E784F89C825B
:1031200061602046FFF712FB2046FFF76EFBBDE70C
:103130002046FFF76AFBB9E72046FFF766FBB5E7D5
:10314000B40000204988012903D1C0F8A412FFF778
:103150005CBB7047FFF70CBF10B50346002408782E
:1031600010F060020FD0202A06D0402A04D0184662
:10317000FFF718FB204610BDD3F8B8028268184646
:1031800090470446F6E748780A2823D2DFE800F0A3
:10319000161E221A22090522120D1846FFF7E0FB1F
:1031A000E8E71846FFF72CFFE4E71846FFF75EFF55
:1031B0000446DFE71846FFF7B9FBDBE71846FFF7E1
:1031C000B5FCD7E71846FFF7BDFFD3E71846FFF772
:1031D000C6FACFE71846FFF7E5FACBE72DE9F0414D
:1031E00004460D4600262979287810F0600012D098
:1031F000202808D0402806D029462046FFF7D2FADA
:103200003046BDE8F081D4F8B802294682682046ED
:1032100090470646F4E76878002860D001282FD050
:10322000032804D029462046FFF7BCFAE8E794F8C3
:103230009C02022806D0032814D029462046FFF716
:10324000B1FADDE749B1802907D02046FFF787FEB4
:1032500080212046FFF783FED2E729462046FFF76C
:10326000A1FACDE7688838B931B1802904D0E8885F
:1032700010B92046FFF773FE2046FFF7C6FABFE7F6
:1032800094F89C02022806D0032814D02946204630
:10329000FFF788FAB4E749B1802907D02046FFF745
:1032A0005EFE80212046FFF75AFEA9E72946204608
:1032B000FFF778FAA4E768880028A1D111F07F0F02
:1032C00002D02046FFF795FC2046FFF79EFAD4F87F
:1032D000B8022946826820469047064690E794F84F
:1032E0009C020027022806D0032826D02946204623
:1032F000FFF758FA84E731B1802904D029462046E7
:10330000FFF750FA7CE711F0800F08D001F07F0042
:1033100000EB800004EB800000F1140107E001F0F5
:103320007F0000EB800004EB800000F5AA710F60C5
:1033300002222046FFF75CFA62E711F0800F0CD002
:1033400001F00F0000EB800004EB8000808C68B976
:1033500029462046FFF726FA52E701F00F0000EB5E
:10336000800004EB8000B0F8640158B111F0800FC8
:103370000DD001F07F0000EB800004EB800000F135
:1033800014050CE029462046FFF70CFA38E701F057
:103390007F0000EB800004EB800000F5AA7541B1CE
:1033A000802906D02046FFF70BFD20B101202860C0
:1033B00002E02F6000E02F60022229462046FFF73E
:1033C00017FA1DE770B505460C460026207810F068
:1033D000600209D0202A07D0402A05D0214628467D
:1033E000FFF7E0F9304670BD95F89C22012A08D01D
:1033F000022A06D0032A04D021462846FFF7D2F934
:10340000F0E7207901280DD8D5F8B8022146826866
:10341000284690470646E0883043E3D12846FFF728
:10342000F4F9DFE721462846FFF7BCF9DAE77047F1
:1034300000487047EC06002070B50A78012302F0BE
:103440000F054E78AB401B4CD0F81C58012E17D0FE
:1034500045EA0343C0F81C3800EB4210D0F8002BBB
:1034600012040BD4D0F8002B0B89C978C3F30A03DC
:103470001A4344EA81410A43C0F8002B002070BD82
:103480009BB21D43C0F81C5800EB4210D0F8003925
:103490001B04F3D4D0F800390D89C978C5F30A05A7
:1034A00089042B4341EA82510B432343C0F800397E
:1034B000E4E7000000800010D0F800196FF30A0163
:1034C000C0F80019D0F8041841F48071C0F804184D
:1034D0000020704770B5044606990A9E049D0D9819
:1034E000012916D0E06840F04000E060204600F07E
:1034F0002BF8A16B1EB321F48031A163012D07D1FC
:10350000A16841F00601A160A16841F02001A1601D
:1035100070BDA16B21F48031A163E168094A1140BB
:10352000E160E16821F44011E160012803D1E06825
:1035300040F48010E060204600F006F8DEE741F439
:103540008031DAE7BFFFBDFF08B500220D490092C8
:10355000009B5B1C00938B420CD80369002BF7DAAD
:103560000092026942F001020261009A521C00922C
:103570008A4201D9032008BD0269D207F5D1002093
:1035800008BD0000400D030030B54C780A780123D7
:1035900000EB4212012C2CD0D2F8004B002C0BDA9D
:1035A000D2F8004B44F00064C2F8004BD2F8004B54
:1035B00044F08044C2F8004BD0F83C580C7804F03A
:1035C0000F0403FA04F425EA0444C0F83C48D0F898
:1035D0001C48097801F00F018B4024EA0341C0F830
:1035E0001C18D2F8000B19490840C2F8000B002043
:1035F00030BDD2F80049002C0BDAD2F8004944F073
:103600000064C2F80049D2F8004944F08044C2F88E
:103610000049D0F83C480D7805F00F0503FA05F590
:10362000ADB2AC43C0F83C48D0F81C48097801F072
:103630000F018B4099B28C43C0F81C48D2F80009A6
:1036400003490840C2F80009D1E700000078F3EF11
:10365000007833ECD0F8001E21F00301C0F8001E02
:10366000D0F8041821F00201C0F8041800207047B7
:10367000D0F8001E21F00301C0F8001ED0F8041895
:1036800041F00201C0F80418002070472DE9F04F06
:1036900000250E460446DDF82CC0DDF824B0109F4E
:1036A0002846294604EB8002C2F80411401C0F286A
:1036B000F8D32046C7B1806B20F40012A263A06B40
:1036C00040F40022A26308468846C4F8000ED4F8ED
:1036D00000182046C4F80018BCF1010F16D0D0F82D
:1036E000001841F0030116E0D0F8040840F002028F
:1036F000C4F80428A06B40F40012A263A06B20F46D
:103700000022A263A06B20F48022DBE7D0F800182F
:103710000BB141F00101C0F80018102100F094FA3B
:1037200000B10125204600F07BFA00B1012540469A
:10373000C4F81088C4F81488C4F81C8800214FF01D
:1037400000694FF0904A4FF67F3314E004EB4112CA
:10375000D2F800C9BCF1000F06DA11B1C2F800A915
:1037600004E0C4F8009901E0C2F80009C2F81009A9
:10377000C2F80839491C8E42E8D8002115E000BF84
:1037800004EB4112D2F800CBBCF1000F06DA11B104
:10379000C2F800AB04E0C4F8009B01E0C2F8000BE3
:1037A000C2F8100BC2F8083B491C8E42E8D8D4F886
:1037B000101821F48072C4F81028A0616FF08040C6
:1037C0006061BBF1000F03D1A06940F01000A0615F
:1037D000A06909490843A0610C9818B1A06940F09C
:1037E0000800A061012F03D1A06904490843A0612A
:1037F0002846BDE8F08F000000383C8004000040FF
:10380000816821F0010181600020704770B50D785A
:103810004E78434CEBB200EB4313012E1FD0D3F88C
:10382000100B6FF31200C3F8100BD3F8100B2040ED
:10383000C3F8100B486908B188684861D3F8100BC9
:1038400040F40020C3F8100BD3F8100B8C68C4F3BD
:1038500012042043C3F8100B012A55D058E04E69DA
:10386000002ED3F8106932D06FF31206C3F8106936
:10387000D3F810692640C3F810694E698C68A642D7
:1038800000D94C61D3F8104944F40024C3F810491E
:10389000D3F810494E69C6F312063443C3F81049F1
:1038A000012A22D000EB4512D2F8003943F004433C
:1038B000C2F800394A6932B3D0F83428097801F0E7
:1038C0000F03012199400A43C0F8342826E026401E
:1038D000C3F81069D3F8104944F40024C3F8104920
:1038E000D3F810496FF31204D8E7096919B100EB56
:1038F0004512C2F8141900EB4510D0F8001941F038
:103900000441C0F8001909E0C86808B1C3F8140BF5
:10391000D3F8000B40F00440C3F8000B002070BD4A
:10392000FFFF07E010B5036C134CA34203D9D0F896
:10393000003B002B1EDB0023C0F8103BD0F8103BEF
:1039400043F40023C0F8103BD0F8103B43F01803B9
:10395000C0F8103BD0F8103B43F0C043C0F8103B18
:10396000012907D1C0F8142BD0F8001B41F08021A9
:10397000C0F8001B002010BD0A30544F4A780B7865
:10398000012A00EB43100BD0D0F8002B22F40012D8
:10399000C0F8002BC978032914D0022912D017E0EF
:1039A000D0F8002922F40012C0F80029C9780329B0
:1039B00001D002290CD1D0F8001941F08051C0F893
:1039C000001905E0D0F8001B41F08051C0F8001B41
:1039D000002070470A784B78D1B200EB4110012BE0
:1039E00012D0D0F8001B002906DB2AB1D0F8001B4A
:1039F00021F08041C0F8001BD0F8001B41F40011F9
:103A0000C0F8001B00207047D0F80019002906DB21
:103A10002AB1D0F8001921F08041C0F80019D0F87F
:103A2000001941F40011C0F80019EBE7F8B50C7863
:103A30004F78774DE3B26FF0604600EB4313012FF0
:103A400026D0D3F8104B6FF31204C3F8104BD3F801
:103A5000104B2C40C3F8104B4C69002C74D08D686F
:103A60002C44641EB4FBF5F4D3F8105BA4B206EA50
:103A7000C4463543C3F8105BD3F8105B8E686643C9
:103A8000C6F312042543C3F8105B012A71D0A6E0E7
:103A90004F691FB3D3F810796FF31207C3F8107989
:103AA000D3F810792F40C3F810794F698D682F44EF
:103AB0007F1EB7FBF5F506EAC545D3F81069354317
:103AC000C3F81059D3F810594E69C6F3120635439E
:103AD000C3F81059CD78012D10D01BE0D3F8106930
:103AE0002E40C3F81069D3F8105945F40025C3F8E7
:103AF0001059D3F810596FF3120509E0D3F8105993
:103B000025F0C045C3F81059D3F8105945F00055B9
:103B1000C3F81059012A18D000EB4413D3F8004918
:103B200044F00444C3F80049CC78012C2FD04A69F2
:103B300062B3D0F83428097801F00F0301219940CD
:103B40000A43C0F8342860E036E00A691AB100EB95
:103B50004413C3F81429C97801290FD1D0F80818E3
:103B6000C90500EB4411D1F8002903D442F00052FA
:103B700002E030E042F08052C1F8002900EB44102E
:103B8000D0F8001941F00441C0F800193DE0D0F828
:103B90000848E405D3F8004902D444F0005401E099
:103BA00044F08054C3F8004900928A8A93B20A789C
:103BB000C96800F06FF928E0D3F8104B8D68C5F3A1
:103BC00012052C43C3F8104BD3F8104B44F40024D7
:103BD000C3F8104B59E7CA680AB1C3F8142BC97867
:103BE00001290CD1D0F80808C005D3F8000B02D485
:103BF00040F0005001E040F08050C3F8000BD3F8D3
:103C0000000B40F00440C3F8000B0020F8BD00009A
:103C1000FFFF07E0816841F00101816000207047EB
:103C200008B500210091102101610649009A521C3B
:103C300000928A4201D9032008BD0269D206F5D458
:103C4000002008BD400D030008B50022009220228C
:103C500042EA811101610649009A521C00928A428F
:103C600001D9032008BD02699206F5D4002008BDE1
:103C7000400D0300D0F8080810F0060004D0022818
:103C800003D0062801D00F207047022070474069FA
:103C900000F001007047D0F81818D0F81C08084050
:103CA00080B27047D0F81818D0F81C080840000CF3
:103CB000704710B5D0F81038D0F8342801F00F0450
:103CC00000EB4110E24002F00102D0F8080943EA9B
:103CD000C212104010BD00EB4111D1F8081BD0F802
:103CE000140808407047416980690840704730B542
:103CF00003460846940802F00301002203F58053AE
:103D000003E01D6840F8045B521CA242F9D300296D
:103D10000BD01C680022D50024FA05F3491E521C62
:103D2000090400F8013B090CF5D130BD70B504461B
:103D3000C068002520F0C040E060012901D079B1C1
:103D400020E0E06840F00050E0600120FCF7C4FD96
:103D500060696D1C10F0010F10D1322DF5D30DE00C
:103D6000E06840F08040E0600120FCF7B5FD60694C
:103D70006D1C10F0010F01D0322DF5D3322D01D082
:103D8000002070BD012070BDD0F8002822F4FE6232
:103D9000C0F80028D0F800284FF4FE6303EA0111B0
:103DA0000A43C0F80028002070470000022A3ED1D4
:103DB000264A274B0A449A4201D20F2138E0254A6D
:103DC000254B0A449A4201D20E2131E0234A244B6A
:103DD0000A449A4201D20D212AE0224A224B0A4487
:103DE0009A4201D20C2123E0204A214B0A449A42F4
:103DF00001D20B211CE01F4A1F4B0A449A4201D2F8
:103E00000A2115E01D4A1E4B0A449A420FD31D4A4F
:103E10001D4B0A449A4201D2082109E01B4A114471
:103E20001B4A914201D2072102E0062100E009214C
:103E3000C26822F47052C260C2684FF4705303EA41
:103E400081210A43C260002070470000405327FFD1
:103E500000350C00401E1BFF40420F0000DC0BFF32
:103E6000804F1200808CF9FE20D6130060B6E5FE6C
:103E700060E3160000D3CEFE40771B00C05BB3FEAC
:103E8000C091210000CA91FE20753800E05459FE0F
:103E9000E09C410010B5029C74B9DB1C9C0800EB4F
:103EA0000230002300F5805004E000BF51F8042BDD
:103EB00002605B1CA342F9D3002010BDFEE7090796
:103EC000090E002804DB00F1E02080F800147047A0
:103ED00000F00F0000F1E02080F8141D704710B5CD
:103EE000FDF7D6FFFDF7A2FFFEF740F8FEF75AF800
:103EF000FCF7ACFB00F030F8BDE8104000F080B8F3
:103F0000FCF700FEFEF7A6F9FFF7E9FF4FF47A7021
:103F1000FCF7E2FC00210F4A0846FEF78BF80D4A39
:103F2000002120321220FEF785F8612214210020A2
:103F3000FEF764F81E2364221421322000F070FA88
:103F400014234FF496721946C82000F001FA00F0CD
:103F500095FAFEE70000002030B587B014216846CE
:103F6000FCF759FA10480024016841F00101016092
:103F700000680E4D00F00100059022467821284689
:103F8000FCF7ACFD782000900120CDE9010403206E
:103F9000039069462846FCF7B1FC05480A21C17028
:103FA000847007B030BD000030380240000002408D
:103FB0008A01002005484FF400218161C100816120
:103FC00001018161410181617047000000000240F0
:103FD0002DE9F04116460D46074600240CE000BFCF
:103FE00004F003013846FEF7FBF83046FCF774FC9A
:103FF000FFF7E0FF641CA4B2AC42F1D9BDE8F08148
:1040000030B585B014216846FCF705FA48F2F6741D
:104010000120CDE900400020104D02900390694638
:104020002846FCF76BFC002221462846FCF756FD8B
:10403000FF2230210A48FCF7E6F908484FF48011C6
:1040400018300160490001604900016049000160C9
:10405000490001604900016005B030BD0004024024
:10406000580B0020F0B50022B84904263504845CC2
:104070000023270602D44FF4003700E002270F6028
:104080006406240E00BF00BF00BF00BF00BF00BF1A
:1040900000BF00BF00BF00BF00BF00BF00BF00BF28
:1040A00000BF00BF00BF00BF00BF00BF00BF00BF18
:1040B00000BF00BF00BF00BF00BF00BF00BF00BF08
:1040C00000BF00BF00BF00BF00BF00BF00BF00BFF8
:1040D00000BF00BF00BF00BF00BF00BF00BF00BFE8
:1040E00000BF00BF00BF00BF00BF00BF00BF00BFD8
:1040F00000BF00BF00BF00BF00BF00BF00BF00BFC8
:1041000000BF00BF00BF00BF00BF00BF00BF00BFB7
:1041100000BF00BF00BF00BF00BF00BF00BF00BFA7
:1041200000BF00BF00BF00BF00BF00BF0E6000BFE8
:1041300000BF00BF00BF00BF00BF00BF00BF00BF87
:1041400000BF00BF00BF00BF00BF00BF00BF00BF77
:1041500000BF00BF00BF00BF00BF00BF00BF00BF67
:1041600000BF00BF00BF00BF00BF00BF00BF00BF57
:1041700000BF00BF00BF00BF00BF00BF00BF00BF47
:1041800000BF00BF00BF00BF00BF00BF00BF00BF37
:1041900000BF00BF00BF00BF00BF00BF00BF00BF27
:1041A00000BF00BF00BF00BF00BF00BF00BF00BF17
:1041B00000BF00BF00BF00BF00BF00BF00BF00BF07
:1041C00000BF00BF00BF00BF00BF00BF00BF00BFF7
:1041D00000BF00BF00BF0D605B1CDBB2082BFFF40B
:1041E00048AF521CD2B2302AFFF441AF4FF080608A
:1041F000086000BF00BF00BF00BF00BF00BF00BF1E
:1042000000BF00BF00BF00BF00BF00BF00BF00BFB6
:1042100000BF00BF00BF00BF00BF00BF00BF00BFA6
:1042200000BF00BF00BF00BF00BF00BF00BF00BF96
:1042300000BF00BF00BF00BF00BF00BF00BF00BF86
:1042400000BF00BF00BF00BF00BF00BF00BF00BF76
:1042500000BF00BF00BF00BF00BF00BF00BF00BF66
:1042600000BF00BF00BF00BF00BF00BF00BF00BF56
:1042700000BF00BF00BF00BF00BF00BF00BF00BF46
:1042800000BF00BF00BF00BF00BF00BF00BF00BF36
:1042900000BF00BF00BF00BF00BF4FF480600860D8
:1042A00000BF00BF00BF00BF00BF00BF00BF00BF16
:1042B00000BF00BF00BF00BF00BF00BF00BF00BF06
:1042C00000BF00BF00BF00BF00BF00BF00BF00BFF6
:1042D00000BF00BF00BF00BF00BF00BF00BF00BFE6
:1042E00000BF00BF00BF00BF00BF00BF00BF00BFD6
:1042F00000BF00BF00BF00BF00BF00BF00BF00BFC6
:1043000000BF00BF00BF00BF00BF00BF00BF00BFB5
:1043100000BF00BF00BF00BF00BF00BF00BF00BFA5
:1043200000BF00BF00BF00BF00BF00BF00BF00BF95
:1043300000BF00BF00BF00BF00BF00BF00BF00BF85
:1043400000BF00BF00BF00BF0020F0BD1804024046
:104350002DE9F04F17469946B84204D91446061B7A
:104360001D46481B04E004460D463E1BA9EB050014
:104370008046DEB1B8F1000F22D04FF0010A4FF0B5
:10438000FF30002E01DA764282464FF0010BB8F181
:10439000000F02DAC8F1000883464FEA460920E020
:1043A000A9B22046012200F01FF86D1C4D45F7DD33
:1043B000BDE8F08F2946A0B2012200F015F8641C78
:1043C000BC42F7DDF4E700BF09EB4809B14502DB69
:1043D0005D44A9EB0609A9B2A0B2012200F004F8DD
:1043E0005444BC42F0D1E3E730B5B0F5C07F14D2FD
:1043F000322912D2094D00F0070301EB410105EB10
:10440000011101EBD000C3F1070401230178A3409F
:104410000AB1194300E09943017030BD880B0020B8
:104420002DE9F043174688461E468146B84201D919
:10443000144600E00446B04501D91D460CE045464F
:104440000AE0A0B201224146FFF7CEFFA0B201224E
:104450003146FFF7C9FF641CBC42F2DD0AE0A9B295
:1044600001224846FFF7C0FFA9B201223846FFF7F4
:10447000BBFF6D1CB542F2DDBDE8F0832DE9F05FB6
:104480000122D1032B48FCF729FB2A4C00252A4E98
:10449000102718344FF480184FF020094FF4001AF9
:1044A0004FF0400B05EB450006EB0010FFF7DAFD7F
:1044B00027600820FCF710FAC4F80080C4F80090C8
:1044C0000820FCF709FAC4F800A0C4F800B00820DE
:1044D000FCF702FA4FF48000206080202060082062
:1044E000FCF7FAF94FF400002060C01320600820A8
:1044F000FCF7F2F94FF080702060C01320600820B4
:10450000FCF7EAF94FF0007020600A20FCF7E4F9AC
:10451000142202210020FFF75BFD6D1CADB2322D8D
:10452000C0D3BDE8F05F00224FF400410148FCF722
:10453000D5BA000000040240880B00204FF0407004
:10454000E1EE100A704700000000000000000102C8
:10455000030406070809000000000102030400002C
:10456000000000000000000000000000000000004B
:104570000010101010101010000010100000001299
:10458000242448000000000000000000000000009B
:10459000001212127E2424247E2424240000000011
:1045A000083C4A4A48380C0A0A4A4A3C08080000B3
:1045B0000044A4A8A8B0541A2A2A4A4400000000C3
:1045C0000030484848506EA49498897600000060F6
:1045D0002020400000000000000000000000000259
:1045E0000408081010101010100808040200004001
:1045F00020101008080808080810102040000000CB
:1046000000001010D63838D610100000000000004E
:104610000000000808087F080808000000000000EB
:1046200000000000000000000000602020400000AA
:104630000000000000007E000000000000000000FC
:1046400000000000000000000000606000000000AA
:10465000020404040808101010202040400000004C
:104660000018244242424242424224180000000004
:1046700000083808080808080808083E000000007C
:10468000003C4242420204081020427E000000002A
:10469000003C4242020418040242423C0000000076
:1046A00000040C0C142424447F04041F00000000A8
:1046B000007E40404078440202424438000000003E
:1046C00000182440405C62424242221C000000006C
:1046D000007E4204040808101010101000000000B2
:1046E000003C4242422418244242423C0000000066
:1046F000003844424242463A0202241800000000B8
:104700000000000018180000000018180000000049
:104710000000000000100000000000101010000059
:1047200000020408102040201008040200000000CD
:10473000000000007E00007E00000000000000007D
:10474000004020100804020408102040000000006F
:10475000003C4242620408080800181800000000EB
:104760000038445AAAAAAAAAAA5C423C0000000047
:10477000001010182828243C444242E700000000A2
:1047800000F8444444784442424244F800000000A7
:10479000003E424280808080804244380000000019
:1047A00000F8444242424242424244F800000000C3
:1047B00000FC424848784848404242FC0000000063
:1047C00000FC424848784848404040E00000000073
:1047D000003C44448080808E8444443800000000C3
:1047E00000E7424242427E42424242E7000000006D
:1047F000007C1010101010101010107C0000000031
:10480000003E0808080808080808080888F00000A2
:1048100000EE444850705048484444EE0000000008
:1048200000E0404040404040404042FE0000000068
:1048300000EE6C6C6C6C6C54545454D60000000048
:1048400000C7626252524A4A4A4646E200000000ED
:1048500000384482828282828282443800000000D2
:1048600000FC424242427C40404040E000000000E8
:10487000003844828282828282B24C380600000074
:1048800000FC4242427C4848444442E300000000AD
:10489000003E4242402018040242427C00000000D8
:1048A00000FE9210101010101010103800000000C0
:1048B00000E74242424242424242423C0000000083
:1048C00000E7424244242428281810100000000069
:1048D00000D654545454546C282828280000000052
:1048E00000E7422424181818242442E7000000009E
:1048F00000EE44442828101010101038000000006A
:10490000007E840408081020204242FC0000001EA3
:104910001010101010101010101010101E000000B9
:10492000402020201010100808040404020200781F
:104930000808080808080808080808087800001887
:104940002400000000000000000000000000000043
:1049500000000000000000000000000000FF0060F8
:104960001000000000000000000000000000000037
:10497000000000000038440C34444C3600000000B5
:104980000000C040405864424242645800000000A9
:1049900000000000001C22404040221C00000000DB
:1049A00000000602023E42424242463B0000000036
:1049B00000000000003C42427E40423C00000000FB
:1049C00000000C12107C10101010107C0000000071
:1049D00000000000003E444438403C42423C00009D
:1049E0000000C040405C6242424242E700000000DA
:1049F00000303000007010101010107C000000001B
:104A0000000C0C00001C040404040404447800009E
:104A10000000C040404E4850704844EE0000000086
:104A200000107010101010101010107C000000000A
:104A30000000000000FE4949494949ED000000001E
:104A40000000000000DC6242424242E70000000039
:104A500000000000003C42424242423C0000000094
:104A60000000000000D864424242645840E0000068
:104A700000000000001A26424242261A02070000E7
:104A80000000000000EE3220202020F8000000008E
:104A900000000000003E42403C02427C000000005A
:104AA00000000010107C10101010120C000000000C
:104AB0000000000000C642424242463B00000000A7
:104AC0000000000000EE4444282810100000000000
:104AD0000000000000DB894A5A5424240000000032
:104AE00000000000007624181818246E0000000052
:104AF0000000000000E74224241818101060000095
:104B000000000000007E44081010227E0000000318
:104B1000040404040404080404040404030008084E
:104B2000080808080808080808080808080800C055
:104B3000202020202020102020202020C000205ACB
:104B40000400000000000000000000000000000061
:104B5000704B00080000002090010000D001000808
:104B60004C4C000890010020B81900002C020008ED
:104B70002B088002101C11FE110232043420502038
:104B800091281124122412221422102010A0104067
:104B900010181610FC10041008FC102420242025E6
:104BA000FE242048202820100415442084A03340EF
:104BB0000182101324F41359281B08A1041AAD0410
:104BC0001AD5041319291B0821081A6504170403B0
:104BD0000904120132021640830450571D020102DB
:104BE0000341031B1A0322C022A0142083061B08C2
:104BF0007F041A8904411375251408D9244C08111F
:104C000026101A19101AAD101AB904C11A5D181A13
:104C100051041A69041A45041409022913010125D3
:104C2000C03209042A027915092111011401220256
:104C30001607058103022D0507050107291A0956E4
:0C4C40002C691A31130A06290873400180
:040000050800019559
:00000001FF
